:1000000019C033C032C031C030C02FC02EC02DC087
:100010002CC02BC02AC029C028C08DC526C025C031
:100020009EC323C022C021C020C01FC01EC01DC04F
:100030001CC01BC011241FBECFEFD4E0DEBFCDBF5C
:1000400011E0A0E0B1E0E6E1FFE002C005900D9212
:10005000AC31B107D9F712E0ACE1B1E001C01D92BB
:10006000A533B107E1F702D054C7CACF10D69FD34A
:1000700080E090E060E070E048EE53E0FCD37894DC
:1000800098D497D4FDCF08952F923F924F925F92CC
:100090006F927F928F929F92AF92BF92CF92DF9298
:1000A000EF92FF920F931F93DF93CF93CDB7DEB7FD
:1000B0002F970FB6F894DEBF0FBECDBF9C012B016A
:1000C000FA0150932E0140932D0150934F0140931C
:1000D0004E0150935C0140935B014FE088379407D9
:1000E00020F068E77FE0C4D69C01C90164E972E0B2
:1000F000BFD6362E60935001C90164E972E0B8D6CC
:100100006C0190934D0180934C014F01AA24BB24B4
:100110006FEF7FE06419750980E090E0A50194011C
:1001200088D6DC01CB013CE0B595A79597958795DE
:100130003A95D1F78B879C87AD87BE879A87898749
:10014000AB85BC85B0935201A0935101A0E0B0E013
:100150008093480190934901A0934A01B0934B01C9
:1001600066247724B60180E090E0A301920161D675
:100170002DE6E22E2DE2F22E29E2022F112DA8010A
:100180009701261B370B480B590BCA01B90123E90C
:1001900032E040E050E080D6CA01B901A5019401E7
:1001A00048D620E030E140E050E076D6222E3F876E
:1001B000209363013093640140936501509366017D
:1001C00063E972E06C197D0980E090E0A30192017F
:1001D00030D6E61AF70A080B190BC801B70123E954
:1001E00032E040E050E058D6CA01B901A5019401BF
:1001F00020D620E030E140E050E04ED630932C0194
:1002000020932B0182E0381609F47FC0831598F4FF
:10021000A4E03A1609F46EC03A1608F05BC0AB854C
:10022000BC85B0935C01A0935B019F8520924E0139
:1002300090934F0111C0332009F441C091E0391669
:1002400059F49F8520925B0190935C012B853C853E
:1002500030932E0120932D0120915B0130915C01A0
:1002600040914E0190914F0160912D0180912E019E
:10027000A985BA85B887AF836D838E834B839C83B2
:1002800029833A83592F782F898598852F960FB621
:10029000F894DEBF0FBECDBFCF91DF911F910F91BC
:1002A000FF90EF90DF90CF90BF90AF909F908F9096
:1002B0007F906F905F904F903F902F900895309374
:1002C0004F0120934E01EB85FC85F0932E01E093C6
:1002D0002D01C2CFB5E03B1609F0BECF2B853C8582
:1002E00030934F0120934E019F8520922D019093D2
:1002F0002E01B2CF30935C0120935B01EB85FC852E
:10030000F0934F01E0934E01A7CF8B859C8590938E
:100310005C0180935B0130932E0120932D019CCFD3
:100320002F923F924F925F926F927F928F929F9205
:10033000AF92BF92CF92DF92EF92FF920F931F93F3
:10034000DF93CF93CDB7DEB76A970FB6F894DEBFD1
:100350000FBECDBF3C0110921D0110921C011092E6
:100360001F0110921E011092210110922001109283
:100370002201109223011E861D8655245394882441
:1003800099241E010894211C311CEE2444244A9413
:1003900084E08E1508F489C0552009F4E2C000916C
:1003A0001C0110911D01EE2009F0FDC00115110581
:1003B00009F4D4C0F0902301F394F0922301C80112
:1003C00088199909EF2DF0E03197EE0FFF1FE20D2C
:1003D000F31D95878487880E991E90922101809243
:1003E0002001CF2CDD24D101AC0DBD1D4C92E7E0E6
:1003F000F0E0EC0FFD1FEC0DFD1D4082B30141E06C
:1004000050E082E3A82EB12CA00EB11EBA8FA98FA6
:100410009A0121503040DB018D919C91801791070A
:10042000A8F0A816B90690F0E394E09222012230D9
:10043000310509F4C4C02330310584F42115310598
:1004400009F4C5C02130310509F4BDC0453051055E
:1004500094F46E5F7F4F4F5F5F4FDACF23303105EB
:1004600009F4A7C02430310589F7F101EC0DFD1D19
:1004700080818D7F8083F394F0922301FA94B0926F
:100480001F01A0921E01E0E0F0E4F0931D01E09353
:100490001C01F1E05F1609F07BCFEE2009F4AFC03C
:1004A000552484E08E1508F077CF9EEC89169FE3E3
:1004B000990608F090C0F0902301EF2DF0E03197FD
:1004C000EE0FFF1FE20DF31D80E090E488199909FB
:1004D00095878487BE01635F7F4F4FE251E0DA0169
:1004E0001C9620E030E0FB0181919191BF01FA015F
:1004F00081939193AF01F101E20FF31F80818C93FF
:10050000E7E0F0E0EC0FFD1FE20FF31F808116968D
:100510008C9316972F5F3F4F11962630310519F7B0
:10052000FA94F09247018FE291E06A960FB6F89440
:10053000DEBF0FBECDBFCF91DF911F910F91FF9016
:10054000EF90DF90CF90BF90AF909F908F907F9073
:100550006F905F904F903F902F900895F0902301FF
:1005600040CF20911E0130911F0180E090E000916A
:100570001C0110911D01F301E80FF91F0190F0819A
:10058000E02DE017F10740F42E173F0728F4F09311
:100590001D01E0931C018F0102968A30910559F7E5
:1005A000EE2009F403CF01151105C1F2F0902301EB
:1005B00006CFA98DBA8D8C918E7F8C934ACF808186
:1005C0008F7B808346CF80818F77808342CF8081ED
:1005D0008F7D80833ECFF0902301EF2DF0E03297A6
:1005E000EE0FFF1FE20DF31D80E090E488199909DA
:1005F00024853585820F931F958784876BCFF09272
:10060000230155244ECFEF92FF920F931F93DF9358
:10061000CF93CDB7DEB762970FB6F894DEBF0FBEAB
:10062000CDBF32DD2B873C874D875E876F87788B08
:10063000898B9A8BA3E5B1E08E01055F1F4FF8010E
:1006400088E001900D928150E1F7209155013091A1
:100650005601409157015091580160915901709194
:100660005A0180915301909154019A8389833C836C
:100670002B835E834D8378876F8380E090E49A8735
:1006800089877E010894E11CF11CF701808191812A
:10069000A0E0B0E0880F991FAA1FBB1F880F991F09
:1006A000AA1FBB1F81939193E017F10779F7698126
:1006B0007A8180E090E028E430E040E050E0B9D377
:1006C00024E630E040E050E0E7D33A8329836B81B1
:1006D0007C8180E090E02EE130E040E050E0A9D362
:1006E00024E630E040E050E0D7D33C832B836D819B
:1006F0007E8180E090E02CE130E040E050E099D352
:1007000024E630E040E050E0C7D33E832D836F8184
:10071000788580E090E02EE130E040E050E089D341
:1007200024E630E040E050E0B7D338872F8380E004
:1007300090E49A878987C701F3DD909362018093E3
:100740006101B6D262960FB6F894DEBF0FBECDBF80
:10075000CF91DF911F910F91FF90EF9008951F921D
:100760000F920FB60F9211242F933F938F939F9365
:100770002091AE013091AF0180910102909102026F
:100780002817390729F481E08093240120E030E024
:100790002F5F3F4F3093AF012093AE019F918F9118
:1007A0003F912F910F900FBE0F901F90189585B518
:1007B000816085BDEEE6F0E080818160808388E322
:1007C00091E090930202809301020895CF92DF920C
:1007D000EF92FF920F931F93DF93CF93CDB7DEB7C6
:1007E0002E970FB6F894DEBF0FBECDBFC982DA8256
:1007F000EB82FC820D831E832F83388749875A87BB
:100800006B877C878D879E878091B00190E0880FF1
:10081000991FFC01EE0FFF1FEE0FFF1FEE0FFF1FD2
:10082000E81BF90BEF54FE4FDE0111968EE00D90A0
:1008300001928150E1F78091B0018F5F8093B00108
:100840002E960FB6F894DEBF0FBECDBFCF91DF91CD
:100850001F910F91FF90EF90DF90CF90089510922D
:10086000B0010895AC011092250180E090E060E0B5
:1008700070E0C9DE089510922501C5DE089582E07A
:100880008093F90181E080932501A7E6B1E0E0EBD8
:10089000F1E087E401900D928150E1F7A0E0B1E032
:1008A000E1EBF1E08EE001900D928150E1F7809153
:1008B000000190910101909300028093FF016091EB
:1008C0000201709103017093FE016093FD0140915C
:1008D0000401509105015093FB014093FA0193DE0E
:1008E0001092AF011092AE0181E090E09093F80178
:1008F0008093F7010895CF92DF92EF92FF920F93CA
:100900001F93DF93CF93CDB7DEB72E970FB6F89432
:10091000DEBF0FBECDBFC982DA82EB82FC820D83BF
:100920001E832F83388749875A876B877C878D87FB
:100930009E8781E08093F90180932501A0E0B1E0DA
:10094000FE0131968EE001900D928150E1F7809189
:10095000000190910101909300028093FF0160914A
:100960000201709103017093FE016093FD014091BB
:100970000401509105015093FB014093FA0143DEBD
:100980001092AF011092AE0181E090E09093F801D7
:100990008093F7012E960FB6F894DEBF0FBECDBF41
:1009A000CF91DF911F910F91FF90EF90DF90CF904B
:1009B00008956F927F928F929F92AF92BF92CF9243
:1009C000DF92EF92FF920F931F9380912501813068
:1009D00069F01F910F91FF90EF90DF90CF90BF9043
:1009E000AF909F908F907F906F9008958091240199
:1009F000813079F71092240120910C0130910D0182
:100A00008091F7019091F8018217930758F01092A6
:100A1000F8011092F7018091F901823009F460C069
:100A200080E090E06C01EE24FF244901AA2497FCA9
:100A3000A094BA2C2091060130910701442737FD7C
:100A40004095542FC701B601F4D1A501940124D2D9
:100A50006090000170900101620E731E709200029E
:100A60006092FF016091080170910901882777FD6C
:100A70008095982FA7019601DCD1A50194010CD295
:100A80000091020110910301020F131F1093FE0148
:100A90000093FD0160910A0170910B01882777FD99
:100AA0008095982FA7019601C4D1A5019401F4D196
:100AB000E0910401F0910501E20FF31FF093FB01B7
:100AC000E093FA01C301B801AF019DDD8091F70108
:100AD0009091F80101969093F8018093F70179CFF6
:100AE0002091FC012F5F2093FC018091B001281719
:100AF00018F01092FC0120E0822F90E0880F991FDF
:100B0000FC01EE0FFF1FEE0FFF1FEE0FFF1FE81B94
:100B1000F90BA0E0B1E0EF54FE4F8EE001900D9292
:100B20008150E1F720910C0130910D018091F70186
:100B30009091F80177CF1F920F920FB60F92112468
:100B40002F933F934F938F939F93EF93FF934091F6
:100B50002601809127014817C1F19BB1242F30E075
:100B6000E0911A01F0911B01E20FF31F808198239D
:100B70009BB995B1E0911801F0911901E20FF31FB3
:100B80008081982395B9842F90E0880F991FE09178
:100B90001601F0911701E80FF91F8081918180956E
:100BA0009095889690938500809384004F5F409342
:100BB0002601FF91EF919F918F914F913F912F913E
:100BC0000F900FBE0F901F90189580912A018130D1
:100BD000B1F09BB1E0911A01F0911B018081807E00
:100BE000892B8BB995B1E0911801F09119018081A1
:100BF0008370892B85B91092260140E0C4CF809183
:100C000029018823C9F48BE092E090931701809327
:100C1000160183E092E0909319018093180189E214
:100C200092E090931B0180931A0180912801809398
:100C3000270110922A01CDCF8130B1F08EE091E0F2
:100C4000909317018093160182E191E0909319012E
:100C50008093180184E191E090931B0180931A0125
:100C600082E080932801E1CF8DE192E0909317011B
:100C70008093160187E192E0909319018093180107
:100C80008FE292E090931B0180931A01CECF84B142
:100C9000836084B98AB1806E8AB9E1E8F0E080812E
:100CA00081608083EFE6F0E0808181608083089539
:100CB000DF92EF92FF920F931F93CF93DF93FC018C
:100CC000908D9093280110920A021092090280914F
:100CD0002901882309F055C081E080932901E92E7C
:100CE000FF24E114F10409F43EC0EF016DE172E06C
:100CF000DF0120E030E0DD24D39400E010E00CC000
:100D000052E0D52E2F5F3F4F22966E5F7F4F119698
:100D10002E153F050CF06FC088819981FB019183EE
:100D200080831C964C911C97F901E95EFD4F40832E
:100D300052965C915297F901E15DFD4F5083080F87
:100D4000191FC297E8F243604F3FD1F6506E5F3FE4
:100D5000B9F6D8CFD09229010093090210930A0264
:100D60000050104419F082E08093290181E08093C3
:100D70002A01DF91CF911F910F91FF90EF90DF90AB
:100D8000089510922901E92EFF24E114F10459F38A
:100D9000EF016BE072E0DF0120E030E0DD2400E0F5
:100DA00010E00BC042E0D42E2F5F3F4F22966E5FC3
:100DB0007F4F11962E153F056CF688819981FB01B6
:100DC000918380831C964C911C97F901ED5FFD4F38
:100DD000408352965C915297F901E75DFD4F508335
:100DE000080F191FC297F0F243604F3FD9F6506EBB
:100DF0005F3FC1F6D9CFD092290110930A02009328
:100E000009020050104409F0AECFB0CF84B188621F
:100E100084B985B1877C85B9229A2A9A80E58CBDF0
:100E200081E08DBD08958EBD0DB407FEFDCF8EB55A
:100E30000895629FD001739FF001829FE00DF11D24
:100E4000649FE00DF11D929FF00D839FF00D749F44
:100E5000F00D659FF00D9927729FB00DE11DF91FF0
:100E6000639FB00DE11DF91FBD01CF01112408954D
:100E7000AA1BBB1B51E107C0AA1FBB1FA617B707C0
:100E800010F0A61BB70B881F991F5A95A9F78095DC
:100E90009095BC01CD01089597FB092E05260ED033
:100EA00057FD04D014D00AD0001C38F4509540955A
:100EB000309521953F4F4F4F5F4F0895F6F790952E
:100EC0008095709561957F4F8F4F9F4F0895A1E258
:100ED0001A2EAA1BBB1BFD010DC0AA1FBB1FEE1FB4
:100EE000FF1FA217B307E407F50720F0A21BB30BFF
:100EF000E40BF50B661F771F881F991F1A9469F77B
:100F000060957095809590959B01AC01BD01CF01D6
:060F10000895F894FFCFE4
:100F16000000000000000000000000000A0064005D
:0C0F26009C07FFFEFF1F0B0203022902C4
:00000001FF
